:04000000B3EF0FF05B
:100600000000803FCDCC3DD7233C12833AB7D13890
:10061000C62737388635C0D633CC2B32708930E7C1
:10062000DB2EE53C1E42A20D00803F00204100C8A9
:1006300042007A44401C4650C34724744997184BE3
:10064000BCBE4C6B6E4E03155079AD60F349710121
:100650000000000A00000064000000E80300001031
:10066000270000A086010040420F008096980000FD
:10067000E1F50500CA9A3B53656E736F72204C4DCD
:1006800037350054656D703D0025332E316600000E
:100690005D6E3F0E4B6EECD2250E601807E05D508C
:1006A000D96EDA6A60C0DFFF5D2AE2D2526A536A0D
:1006B000506A516A26DB5CEC0FF022E3526A536AFF
:1006C00052C001F053C002F0046A0A0E036E36EC09
:1006D0000FF001C052F002C053F0D00E426E4368DA
:1006E00010DB446E456A4250442643504522445034
:1006F0005226455053223E2A04DB5CEC0FF0E0E228
:1007000000DB2E0A1EE1518C3E2A5E6A5F6A14D01D
:100710005EC001F05FC002F0046A0A0E036E36ECA0
:100720000FF0EFDA0126000E0222D00E01245E6ED9
:10073000FF0E02205F6E3E2AE4DA5CEC0FF007E366
:10074000E7D75E6A5F6A518802D0518408D03E2A9A
:100750003E04DEDA01E191D2660AF7E089D2070EA3
:10076000511401E11AD251A803D05F6A060E5E6EE1
:100770004B50D96EDA6ADECF5AF0DECF5BF0DDCFB8
:100780005CF0030E4B265CAE10D05AC001F05BC08B
:1007900002F05CC003F06AEC0FF001C05AF002C036
:1007A0005BF003C05CF0030E5012586A596A5A504D
:1007B0005B105C107CE0820E426E43685AC044F0CD
:1007C0005BC045F05CC046F05DC047F0100E05D040
:1007D000D8904732463245324432E82EF9D7445059
:1007E0004224586E000E4320596E5806D8A0590670
:1007F00058C001F059C002F0046A030E036E36ECD3
:100800000FF001C058F002C059F058C007F059C0AD
:1008100008F00A6A0A0E096E18EC0DF007C058F0CD
:1008200008C059F059AE03D05806D8A05906585000
:100830000008AEEC06F01EC054F01FC055F020C0FA
:1008400056F054C00FF055C010F056C011F05AC009
:1008500012F05BC013F05CC014F073EC0AF00FC030
:1008600054F010C055F011C056F054C001F055C0FE
:1008700002F056C003F0046A800E056E3F0E066E4D
:1008800021EC0EF004E25806D8A0590610D054C04E
:1008900001F055C002F056C003F0046A200E056E48
:1008A000410E066E21EC0EF002E3584A592A5FBE53
:1008B00005D05F501AE10D0E5E5C17E25AC02CF0B5
:1008C0005BC02DF05CC02EF05E50E3EC07F01EC064
:1008D0002FF01FC030F020C031F08CEC08F02CC09D
:1008E0005AF02DC05BF02EC05CF059BE05D05950B7
:1008F0001BE10A0E585C18E25A505B105C104BE08A
:100900005AC029F05BC02AF05CC02BF095EC0BF0CC
:1009100029502A102B102C10D8B459BE3CD0595055
:1009200003E1020E585C37E354C001F055C002F0F9
:1009300056C003F0700E046E890E056E400E066EF2
:1009400021EC0EF0F70ED8B0F80E5826FF0E592203
:100950005850AEEC06F01EC054F01FC055F020C039
:1009600056F05AC001F05BC002F05CC003F054C006
:1009700004F055C005F056C006F00BEC0AF001C0BB
:100980004CF002C04DF003C04EF004C04FF05A6A64
:100990005B6A5C6A30D05AC029F05BC02AF05CC048
:1009A0002BF095EC0BF029C04CF02AC04DF02BC079
:1009B0004EF02CC04FF05AC038F05BC039F05CC02C
:1009C0003AF04CC009F04DC00AF04EC00BF04FC0D9
:1009D0000CF078EC0EF009C03BF00AC03CF00BC004
:1009E0003DF0BDEC0EF038C05AF039C05BF03AC0B3
:1009F0005CF0586A596A010E606E62D9F5504C5C21
:100A00000900F5504D580900F5504E580900F550B1
:100A10004F5804E3602A0A0E6018EFE160C042F00C
:100A2000436A42BE43065E5042265F5043225850FE
:100A30004226595043224250525E4350535A5E5010
:100A40005F1003E05206D8A0530650C042F0030ED8
:100A5000421606E05206D8A0530602D071D9FAD742
:100A600053BE04D05350FAE15204F8E250C042F0B1
:100A7000030E42160FE05D50D96EDA6A2D0EDF6E5E
:100A80005D2A08D0FFD854EC0DF025D9C3EC0DF049
:100A900049D9F5D76006602805E0F4D758D958063B
:100AA000D8A0590659BE04D05950F8E15804F6E2CE
:100AB0005FBE08D05F5003E1090E5E5C03E3080EE1
:100AC000606E02D05EC060F060505E5E000E60BE80
:100AD000FF0E5F5A605006E05D50D96EDA6A2E0E46
:100AE000DF6E5D2A6050AEEC06F01EC048F01FC0FD
:100AF00049F020C04AF05AC012F05BC013F05CC04D
:100B000014F048C00FF049C010F04AC011F073EC67
:100B10000AF00FC029F010C02AF011C02BF095EC9C
:100B20000BF029C04CF02AC04DF02BC04EF02CC069
:100B30004FF027D0A7D854EC0DF0CDD8C3EC0DF072
:100B4000F1D8DF6E5D2A4CC001F04DC002F04EC0FE
:100B500003F04FC004F0B4D8F5CF05F00900F5CF8D
:100B600006F00900F5CF07F00A00F5CF08F0C3EC56
:100B70000DF001C04CF002C04DF003C04EF004C0B7
:100B80004FF06006602805E0D5D7E1D85E06D8A012
:100B90005F065E505F106CE0F8D75E505F1007E1B3
:100BA0004C504D104E104F1002E15E4A5F2A800EED
:100BB00060BE7F0E426E5E50605C5F50800A42589D
:100BC00003E25EC060F00FD05F50800A426E60505A
:100BD0005E5C800E60BE7F0E425805E260505E6E25
:100BE0005F6A5EBE5F065250531008E050C042F08C
:100BF000030E421603E05206D8A0530651AC10D0A3
:100C000052505E5C5F50800A426E5350800A4258D8
:100C100005E25E50525E5F50535A02D0526A536AE8
:100C2000800E60BE7F0E426E5250605C5350800A50
:100C3000425807E26050525E000E60BEFF0E535AEB
:100C400002D0526A536A5250531007E079D85206C4
:100C5000D8A0530652505310F9E150C042F0030E91
:100C6000421606E05D50D96EDA6A2D0EDF6E1CD595
:100C70003E2A3E044DD801E00FD55D50D96EDA6AA8
:100C8000DF6A000C4CC001F04DC002F04EC003F012
:100C90004FC004F06050040DF3504F0F426E42C03D
:100CA000F6FF060EF76E0900F5CF05F00900F5CF47
:100CB00006F00900F5CF07F00A00F5CF08F01200A2
:100CC0006050040DF3504F0F426E42C0F6FF060E07
:100CD000F76E0900120001C054F002C055F003C0C5
:100CE00056F004C057F054C001F055C002F056C091
:100CF00003F057C004F00A0E056E066A076A086A18
:100D00000A0C3EC0F6FF060EF76E0800F550120002
:100D1000426E42C0F6FF060EF76E0800F5CF60F097
:100D20006050120001C054F002C055F003C056F0EC
:100D300004C057F05D50D96EDA6A5450300F12007B
:100D40005D50D96EDA6A200EDF6E5D2A200C5D5090
:100D5000D96EDA6A300EDF6E5D2A300C286E28AE4E
:100D60006CD0286C2850800A120F3BE30A6A0A0EE6
:100D7000096E046A640E15D901BE02068FEC0DF0EF
:100D800001C007F002C008F018EC0DF0ECD8010F1C
:100D9000226E22C0F6FFBCD80A6A640E0FD907BEC5
:100DA000080618EC0DF002D9010F246E24C0F6FFDE
:100DB000BBD873EC0AF0C4D801BE02068FEC0DF06C
:100DC0000150030DF350010F216E21C0F6FFA0D892
:100DD00073EC0AF00FC01EF010C01FF011C020F01D
:100DE00012002850800A750F23E30A6A0A0EE6D81B
:100DF00007BE080618EC0DF0B6D8010F226E22C00F
:100E0000F6FF92D8C7D801BE02068FEC0DF0015054
:100E1000030DF350010F236E23C0F6FF79D873EC56
:100E20000AF00FC01EF010C01FF011C020F0120019
:100E30002850030DF350010F9ED02850800A120F46
:100E40003BE30A6A0A0E096E046A640EAAD801BE60
:100E500002068FEC0DF001C007F002C008F018EC9C
:100E60000DF081D8280F226E22C0F6FF51D80A6AF1
:100E7000640EA4D807BE080618EC0DF097D8280F0A
:100E8000246E24C0F6FF50D873EC0AF059D801BE86
:100E900002068FEC0DF00150030DF350280F216E68
:100EA00021C0F6FF35D873EC0AF00FC01EF010C059
:100EB0001FF011C020F012002850800A750F23E3A4
:100EC0000A6A0A0E7BD807BE080618EC0DF04BD84C
:100ED000280F226E22C0F6FF27D85CD801BE02067A
:100EE0008FEC0DF00150030DF350280F236E23C03B
:100EF000F6FF0ED873EC0AF00FC01EF010C01FF002
:100F000011C020F012002850030DF350280F33D0E9
:100F1000060EF76E0900F5CF12F00900F5CF13F0B9
:100F20000A00F5CF14F01200060EF76E0900F5CF97
:100F30000FF00900F5CF10F00A00F5CF11F0120004
:100F40000FC025F010C026F011C027F025C00FF00B
:100F500026C010F027C011F0046A0A0E036E285054
:100F6000016E026A12000750030DF3CF21F01B0E31
:100F7000212621501200216E21C0F6FF060EF76EC9
:100F80000900F5CF1EF00900F5CF1FF00A00F5CFDC
:100F900020F01200046A0A0E036E2850016E026AE5
:100FA0001200036E2850016E026A12000750030DF2
:100FB000F3CF23F0360E232623501200096E28505B
:100FC000076E086A12002B6E6D0E2B6457D00A0E46
:100FD000056E640E016E2B5023EC0FF0F3EC0EF057
:100FE000030DF3CF21F01B0E21262150010F226E9D
:100FF00022C0F6FF88EC07F0640E056E2B50F3EC70
:101000000EF0030DF3CF23F0360E23262350010FED
:10101000246E24C0F6FF94EC07F073EC0AF00FC0C6
:1010200028F010C029F011C02AF00A0E016E2B50D2
:1010300023EC0FF06AD888EC07F028C00FF029C025
:1010400010F02AC011F073EC0AF00FC025F010C0A8
:1010500026F011C027F025C00FF026C010F027C0E1
:1010600011F0126A136A3F0E146E73EC0AF00FC08F
:101070001EF010C01FF011C020F012000A0E2B64E9
:1010800033D0016E2B5023EC0FF03FD888EC07F0E3
:101090000A0E056E2B50F3EC0EF0030DF3CF22F089
:1010A0001B0E22262250010F236E23C0F6FF94EC64
:1010B00007F073EC0AF00FC028F010C029F011C03F
:1010C0002AF028C00FF029C010F02AC011F0126ACF
:1010D000136A3F0E146E73EC0AF00FC01EF010C0BE
:1010E0001FF011C020F012002B500FD894EC07F025
:1010F000126A136A3F0E146E73EC0AF00FC01EF0F2
:1011000010C01FF011C020F01200030DF350010FAA
:10111000216E21C0F6FF12002EC032F0336A346A0D
:101120002D34323601E333803250376E31C032F025
:10113000336A346A3034323601E333803250366EEB
:10114000375009E03650375C0DE23750365C326E6E
:10115000180E326407D02FC02CF030C02DF031C0F3
:101160002EF01200365009E03750365C0DE2365052
:10117000375C326E180E326407D02CC02CF02DC0B4
:101180002DF02EC02EF01200060E356E2EBE358EBE
:1011900031BE358C2D8E2E6A308E316A3650375CDA
:1011A00018E2D8902F36303631363606375036189A
:1011B0000CE0350635C032F0070E321606E0F1D7E6
:1011C000D8902E322D322C32372A365037181BE069
:1011D000F7D73750365C17E2D8902C362D362E369E
:1011E0003706375036180CE0350635C032F0070E9A
:1011F000321606E0F1D7D890313230322F32362A0B
:1012000036503718F8E135AE07D02C1E2D1E2E1E95
:101210002C2A000E2D222E2235BC1FD8356A2C50C8
:101220002F262D5030222E50312231AE03D015D82A
:10123000010E356E2FC001F030C002F031C003F056
:1012400037C004F035C005F0D4EC0CF001C02CF030
:1012500002C02DF003C02EF012002F1E301E311ED2
:101260002F2A000E30223122000C046E8A9A8A88BE
:10127000026A04AE01D0022A010E37D8060E036EB0
:10128000D8900232032EFCD73CD8050E036ED890BE
:101290000232032EFCD741D8023A0F0E021648D86C
:1012A000E82EFED700F08A8A90EC0FF08A9A04C0EC
:1012B00002F0D8900232D8900232D8900232010E59
:1012C00014D8D8900232D89002321BD8D89002326B
:1012D00024D82ED8E82EFED700F08A8A90EC0FF0A2
:1012E0008A9A90EC0FF099EF0FF002160246024630
:1012F00002468A500218F70B02188A6E04C002F0E8
:101300001200010E0216024602468A500218FB0B1A
:1013100002188A6E04C002F01200010E0216024684
:101320008A500218FD0B02188A6E04C002F01200E7
:10133000010E02168A500218FE0B02188A6E030C68
:10134000046E8A9A8A98026A04AE01D0022A010EBB
:1013500037D8060E036ED8900232032EFCD73CD845
:10136000050E036ED8900232032EFCD741D8023A04
:101370000F0E021648D8E82EFED700F08A8A90ECAD
:101380000FF08A9A04C002F0D8900232D89002324C
:10139000D8900232010E14D8D8900232D89002327E
:1013A0001BD8D890023224D82ED8E82EFED700F0D1
:1013B0008A8A90EC0FF08A9A99EC0FF090EF0FF078
:1013C00002160246024602468A500218F70B02181D
:1013D0008A6E04C002F01200010E02160246024696
:1013E0008A500218FB0B02188A6E04C002F0120029
:1013F000010E021602468A500218FD0B02188A6E70
:1014000004C002F01200010E02168A500218FE0BF0
:1014100002188A6E030C03C007F0086A096A0234D6
:10142000073601E3088007500F6E0F5005E1016A8F
:10143000026A036A046A120006C007F0086A096AB1
:101440000534073601E3088007500E6E0E50EFE0BA
:10145000028E036A058E066A0A6A0B6A0C6A0D6AB6
:101460007F0E0F5E0E50980F0F5E180E0E6ED89006
:101470000A360B360C360D360450015C0550025806
:101480000650035807E30450015E0550025A065007
:10149000035A0A80D8900136023603360E2EE7D75B
:1014A0000FAE0CD00F50800A970FC1E3D8900D32C9
:1014B0000C320B320A320F3EF9D70CD0170E0F64E4
:1014C00007D0B5D7D8900A360B360C360D360F0636
:1014D0000F50F8E10AC001F00BC002F00CC003F09D
:1014E0000DC004F0120011C015F0166A176A10340E
:1014F000153601E316801550186E185004E10F6A76
:10150000106A116A120014C015F0166A176A1334B3
:10151000153601E3168015501D6E1D5004E10F6A4B
:10152000106A116A12001D507B0F182611C01DF0A1
:1015300014501D1A800E1D16108E138E000E1416D8
:10154000196A1A6A1B6A070E1C6E0FB02BD8D89046
:10155000113210320F32D8901236133614361C2E38
:10156000F4D7090E1C6E0FB01DD8D890113210326E
:101570000F32D8901B321A3219321C2EF4D719C0F0
:1015800001F01AC002F01BC003F018C004F01DC027
:1015900005F0D4EC0CF001C00FF002C010F003C055
:1015A00011F012001250192613501A2214501B2247
:1015B0001200033404340C6E0C5005E1016A026A17
:1015C000036A046A1200063407340B6E0B50F6E00F
:1015D000038E046A068E076A076A086A096A0A6A3D
:1015E0007F0E0C5E0B50A00F0C5E200E0B6ED89081
:1015F0000736083609360A360450015C0550025891
:10160000065003580750045809E30450015E055082
:10161000025A0650035A0750045A0780D8900136E0
:101620000236033604360B2EE2D70CAE0CD00C502B
:10163000800A9F0FC3E3D8900A320932083207327A
:101640000C3EF9D70CD01F0E0C6407D0B7D7D8903A
:101650000736083609360A360C060C50F8E107C082
:1016600001F008C002F009C003F00AC004F0120043
:101670000FC013F0146A156A0E34133601E3148098
:1016800013501A6E1A5004E10D6A0E6A0F6A1200A6
:1016900012C013F0146A156A1134133601E3148072
:1016A00013501B6E1B5004E10D6A0E6A0F6A120084
:1016B000176A186A196A1B50890F1A5E0FC01BF04F
:1016C00012501B1A800E1B160E8E0F6A118E126A94
:1016D000180E166ED89017361836193610500D5C45
:1016E00011500E5812500F5807E310500D5E115054
:1016F0000E5A12500F5A1780D8900D360E360F36EC
:10170000162EE8D717C001F018C002F019C003F078
:101710001AC004F01BC005F0D4EC0CF001C00DF0B1
:1017200002C00EF003C00FF012002BC02DF02E6A85
:101730002F6A2A342D3601E32E802D50376E375014
:1017400005E1296A2A6A2B6A2C6A1200170E2D6E8F
:1017500029C02EF02AC02FF02BC030F02D28316E7A
:1017600004D0D89030322F322E32312EFAD72E506C
:10177000326E2A8E2B6A2950336E2A50346E2B50CB
:10178000356E366A8E0E375E37AE0CD03750800A13
:101790008F0FD7E3D8903632353234323332373E7A
:1017A000F9D70CD0170E376407D0CBD7D890333683
:1017B00034363536363637063750F8E1325008E0E1
:1017C000361E351E341E336C000E3422352236226E
:1017D00033C029F034C02AF035C02BF036C02CF0CD
:1017E00012009396939493929390939A93988A96D7
:1017F0008A948A928A908A9A8A9899EC0FF099EC46
:101800000FF099EC0FF099EC0FF099EC0FF099ECC8
:101810000FF0010E056E2ED88A968A948A828A80ED
:101820008A8A8A9890EC0FF025D899EC0FF0052A57
:10183000030E0564F0D717D88A968A948A828A9014
:101840008A8A8A9890EC0FF00ED899EC0FF0280E47
:10185000A0EC09F0100EA0EC09F0010EA0EC09F0CC
:101860000F0EA0EF09F08A968A948A828A908A9A4B
:101870008A9812008A968A948A828A808A9A8A989A
:1018800012000F0EC16E070EB46E8068816A826A04
:101890003F0E926E070EB46EB8EC0FF0090E77ECA7
:1018A0000FF0F1EC0BF0010EA0EC09F00C0EA0EC27
:1018B00009F0010E056E770E066E0650D8A4060ECE
:1018C000076E010E90EC0CF0010E056E830E066E95
:1018D0000650D8A4060E076E020E90EC0CF0890E8E
:1018E0003E6EF4EC0DF022C03FF023C040F024C067
:1018F00041F0610E48EC03F0060E056E610E066EB7
:10190000076A020E90EC0CF0B20E35EC09F0430EB3
:1019100035EC09F0026A640E016E49EC0FF0DFD776
:10192000086E0DD005507F0F08D00550BF0F05D0B1
:101930000550930F02D00550D30F096E09D00850FF
:10194000010AF0E0030AF1E0010AF2E0070AF3E01D
:101950000950A0EC09F014D006C0F6FF07C0F7FF4D
:10196000F86A050EF76403D00800F55005D0F6CFED
:10197000E9FFF7CFEAFFEF5035EC09F0064A072AF6
:1019800006C0F6FF07C0F7FFF86A050EF76403D03C
:101990000800F55005D0F6CFE9FFF7CFEAFFEF508A
:1019A0000009D8B41200D8D7045004E00150021046
:1019B000031006E1016A026A036A1200042A33D89E
:1019C000066A076AFE0E0314086E06500710081018
:1019D00007E0F4D7042A012A000E0222032223D8AA
:1019E000066A076A0350086E06500710081006E0E2
:1019F000F1D70406D89001360236033602BE03D072
:101A0000020E0460F6D704A0029ED890043204505F
:101A100003120550D8A4038E01C001F002C002F0E9
:101A200003C003F01200D8900332023201321200D8
:101A30000C6A0AAE06D0096C0A1ED8B00A2A010E3A
:101A40000C6E08AE06D0076C081ED8B0082A010E2E
:101A50000C1A0D6A0E6A09500A101BE0010E0B6E7B
:101A600004D0D89009360A360B2A0AAEFAD7D89095
:101A70000D360E360950075C0A50085805E3095028
:101A8000075E0A50085A0D80D8900A3209320B2E90
:101A9000EED70C5004E00D6C0E1ED8B00E2A0DC00F
:101AA00007F00EC008F01200096A0A6A0B6A0C6A95
:101AB000055006100710081029E0010E0D6E06D023
:101AC000D89005360636073608360D2A08AEF8D700
:101AD000D89009360A360B360C360550015C065094
:101AE0000258075003580850045809E30550015E96
:101AF0000650025A0750035A0850045A0980D890D9
:101B000008320732063205320D2EE2D709C001F045
:101B10000AC002F00BC003F00CC004F01200066A09
:101B200002AE06D0016C021ED8B0022A010E066E6B
:101B300004AE04D0036C041ED8B0042A0350041071
:101B400017E0010E056E04D0D89003360436052A3E
:101B500004AEFAD70350015C0450025804E303506A
:101B6000015E0450025AD89004320332052EF2D797
:101B7000065004E0016C021ED8B0022A01C001F038
:101B800002C002F01200055006100710081023E0F2
:101B9000010E096E06D0D89005360636073608368F
:101BA000092A08AEF8D70550015C065002580750C4
:101BB00003580850045808E30550015E0650025AC5
:101BC0000750035A0850045AD89008320732063298
:101BD0000532092EE8D701C001F002C002F003C0AF
:101BE00003F004C004F012002A6A276A286AA7ECEE
:101BF0000FF0900E0DEC0FF0000E0DEC0FF0ADECB1
:101C00000FF0910E0DEC0FF0010E9EEC0EF02A6E0F
:101C1000000E9EEC0EF0296EA1EC0FF02A50256EFE
:101C20002950276E25C028F027C01CF028C01DF0C1
:101C30004DEC0EF01CC022F01DC023F01EC024F09D
:101C4000120003AE0DD0076A086A800E096E0150BB
:101C5000075C016E02500858026E03500958036E6B
:101C600006AE0DD0076A086A800E096E0450075C44
:101C7000046E05500858056E06500958066E800E11
:101C8000031A061A0450015C055002580650035806
:101C900002E2D8901200D8801200106A116A420E37
:101CA000126E1CC009F01DC00AF0D8EC0EF009C07D
:101CB0000DF00AC00EF00BC00FF038EC0BF00DC0A9
:101CC0001FF00EC020F00FC021F01FC00DF020C08B
:101CD0000EF021C00FF0106A116A410E126E38EC3E
:101CE0000BF00DC01CF00EC01DF00FC01EF0120056
:101CF0008E0E116E06D0D8900C320B320A32093299
:101D0000112A0D6A0E6A0F6A0C50106E0D500E10DB
:101D10000F101010F0E109C001F00AC002F00BC072
:101D200003F011C004F0000E056ED4EC0CF001C0FD
:101D300009F002C00AF003C00BF01200026E84EC3E
:101D40000FF0C6500F0B080A04E0C6500F0B0B0A29
:101D5000D8B4C586C7A0FED7C9CF03F084EC0FF076
:101D6000020405E1C59AC588C5A805D0FDD7C58A76
:101D7000C588C5B8FED7035012003B503C103D103B
:101D800002E0800E3D1A38C02CF039C02DF03AC068
:101D90002EF03BC02FF03CC030F03DC031F08CEC59
:101DA00008F02CC038F02DC039F02EC03AF01200E7
:101DB0000C6A0AAE06D0096C0A1ED8B00A2A010EB7
:101DC0000C6E09C001F00AC002F0036A8E0E046EA8
:101DD0000CC005F0D4EC0CF001C009F002C00AF010
:101DE00003C00BF01200066E086A055014E0010EE5
:101DF000076E03D0D8900536072A05AEFBD7D890DA
:101E000008360550065C03E30550065E0880D8904E
:101E10000532072EF4D708501200026E84EC0FF042
:101E200002C0C9FFC6BE1200C6500F0B080A05E06B
:101E3000C6500F0B0B0AD8A41200C7B0FED784EC13
:101E40000FF0C5501200026E080E036E046AD8909F
:101E500002340434046ED89002360150045C02E36C
:101E60000150045E032EF3D7045012000150030208
:101E7000F3CF05F0F4CF06F001500402F35006262C
:101E800002500302F350062605C001F006C002F01E
:101E90001200046A056A09D0030E036E980EE82E3C
:101EA000FED7032EFCD7044A052A0150045C0250D9
:101EB0000558D8B01200F0D7036E026A3A0E0360DC
:101EC00005D02F0E036402D0010E026E02C001F095
:101ED0000130120001500210031002E0800E031ABC
:101EE00001C001F002C002F003C003F01200016E55
:101EF0003F0EC716C66AC56AC686C78E9486948882
:101F0000C68A01C0C8FF1200C7A403D0016A012A13
:101F100001D0016AC5501F0B0110D8B41200F4D7CC
:101F2000080EE82EFED700F0080EE82EFED700F0CF
:101F30001200240E016EB60EE82EFED7012EFCD73D
:101F4000120084EC0FF0C584C5A41200FDD784EC08
:101F50000FF0C580C5A01200FDD784EC0FF0C5823C
:101F6000C5A21200FDD7000EF86E000141EF0CF083
:041F7000C69A1200FB
:020000040020DA
:08000000FFFFFFFFFFFFFFFF00
:020000040030CA
:0E000000FF02181EFF8180FF0FC00FE00F40AF
:00000001FF
